:020000040000FA
:04000000FEEFFFF020
:020000040001F9
:10FE940012001200010204081020800EBE6E000E33
:10FEA4000401006F000EC66E1200800EBE6E900E2E
:10FEB40003011A6F540E1B6F1200000E096E000E20
:10FEC4000A6E000E0B6E000E0C6E000E056E000E18
:10FED400066E000E076E000E086E120003011A9FD4
:10FEE400101C126E111C136E13C512F5136A1250F6
:10FEF400196F1050FF0A186FB19E1A8F1200980ED6
:10FF0400F66EFE0EF76E010EF86E01EE17F110EEAE
:10FF140006F00900F5C4EEF4E550E150FAE101EE13
:10FF240001F10F0EEE6AE806FDE100019AEFFFF021
:10FF3400048E4AECFFF05FECFFF04FECFFF057EC5F
:10FF4400FFF0BCECFFF0BE9E4BECFFF0030E116E15
:10FF5400E80E106E70ECFFF0800EB118D8A4B5EF67
:10FF6400FFF0B7EFFFF0AEEFFFF0BE8EA3EFFFF0B0
:10FF7400FEEFFFF021EE17F111EE10F1050EDBC4D8
:10FF8400E3F4E806FCE2010E1D241D6E000E1E20A3
:10FF94001E6EF40E1D1806E11E04D8A4D4EFFFF063
:10FFA400D6EFFFF0BCEFFFF0000E1E6E000E1D6ECC
:10FFB4006100F8F216F5800E1616100E0D24D96E97
:10FFC400050E0E20DA6EDF508009166E610058F4BB
:10FFD400BEF40D4A0E2A060E0D180E10D8A4F5EF25
:10FFE400FFF0F7EFFFF0BCEFFFF0000E0E6E000E17
:0CFFF4000D6EBCEFFFF0120081EFFFF07B
:020000040020DA
:10000000FF0FFF0FFF0FFF0FFF0FFF0FFF0FFF0F80
:10001000FF0FFF0FFF0FFF0FFF0FFF0FFF0FFF0F70
:020000040030CA
:0A0000008CFEFFFC9FFFFFFFFFFFD7
:00000001FF
