:020000040000FA
:04000000FEEFFFF020
:020000040001F9
:10FF5E00120012001200800EBE6E000E0401006F21
:10FF6E00000EC66E120001EE01F10D0EEE6AE806ED
:10FF7E00FDE10001D4EFFFF0000E096E000E0A6ED7
:10FF8E00000E0B6E000E0C6E000E056E000E066E51
:10FF9E00000E076E000E086E1200048EAFECFFF01E
:10FFAE00C3ECFFF0B2ECFFF0B1ECFFF0E5ECFFF0CC
:10FFBE00B0ECFFF0DDEFFFF0FEEFFFF0BE28BE6EFF
:10FFCE00060E0F6E130E0E6EAE0EE82EFED70E2E12
:10FFDE00FCD70F2EFAD7BF0EBE18D8A4F9EFFFF03C
:10FFEE00FBEFFFF0E5EFFFF0800EBE6E1200BAEFF2
:02FFFE00FFF012
:020000040020DA
:10000000FF0FFF0FFF0FFF0FFF0FFF0FFF0FFF0F80
:10001000FF0FFF0FFF0FFF0FFF0FFF0FFF0FFF0F70
:020000040030CA
:0A0000008CFEFFFC9FFFFFFFFFFFD7
:00000001FF
