:020000040000FA
:04000000FEEFFFF020
:020000040001F9
:10FF1A0012001200120001EE01F10D0EEE6AE8065F
:10FF2A00FDE10001AAEFFFF0000E096E000E0A6E55
:10FF3A00000E0B6E000E0C6E000E056E000E066EA5
:10FF4A00000E076E000E086E1200048E8DECFFF094
:10FF5A0099ECFFF0BBECFFF08FECFFF0CDECFFF07B
:10FF6A008EECFFF0B3EFFFF0FEEFFFF0000ECE6E67
:10FF7A00000ECF6E800EBE6E000EBF6E000E040124
:10FF8A00006F000E086F000EC66E300EC76E1200AC
:10FF9A00100ECF18D8A4D4EFFFF0D6EFFFF0DAEFA7
:10FFAA00FFF0000E136E000E126E300ECF18D8A49A
:10FFBA00E1EFFFF0E3EFFFF0CDEFFFF01250131087
:10FFCA00D8A4EAEFFFF0ECEFFFF0CDEFFFF0000E60
:10FFDA00136E010E126EBE28BE6EBF0EBE18D8A4D6
:10FFEA00F9EFFFF0FBEFFFF0CDEFFFF0800EBE6EF2
:06FFFA00120090EFFFF081
:020000040020DA
:10000000FF0FFF0FFF0FFF0FFF0FFF0FFF0FFF0F80
:10001000FF0FFF0FFF0FFF0FFF0FFF0FFF0FFF0F70
:020000040030CA
:0A0000008CFEFFFC9FFFFFFFFFFFD7
:00000001FF
