:020000040000FA
:04000000FEEFFFF020
:020000040001F9
:10FE9E0012001200010204081020800EBE6E900E99
:10FEAE0003011A6F540E1B6F1200800EBE6E000EF1
:10FEBE000401006F000EC66E000ECE6E1200000E14
:10FECE00096E000E0A6E000E0B6E000E0C6E000E0A
:10FEDE00056E000E066E000E076E000E086E120006
:10FEEE0003011A9F121C146E131C156E15C514F502
:10FEFE00156A1450196F1250FF0A186FB19E1A8F9F
:10FF0E001200A20EF66EFE0EF76E010EF86E01EEE8
:10FF1E0019F110EE06F00900F5C4EEF4E550E150CB
:10FF2E00FAE101EE01F1110EEE6AE806FDE10001C3
:10FF3E00A1EFFFF0048E4FECFFF066ECFFF05CECEF
:10FF4E00FFF054ECFFF0C3ECFFF0BE9E50ECFFF060
:10FF5E00030E136EE80E126E77ECFFF0800EB118E2
:10FF6E00D8A4BCEFFFF0BEEFFFF0B5EFFFF0BE8EF2
:10FF7E00AAEFFFF0FEEFFFF021EE19F111EE12F1F4
:10FF8E00050EDBC4E3F4E806FCE20D4A0E2AF40E7D
:10FF9E000D1806E10E04D8A4D7EFFFF0D9EFFFF04D
:10FFAE00FDEFFFF0000E0E6E000E0D6E6100F8F20A
:10FFBE0018F5800E1816120E0F24D96E050E10208D
:10FFCE00DA6EDF50186E610060F4BEF40F4A102A2C
:10FFDE00060E0F181010D8A4F7EFFFF0F9EFFFF090
:10FFEE00FDEFFFF0000E106E000E0F6E120088EF88
:02FFFE00FFF012
:020000040020DA
:10000000FF0FFF0FFF0FFF0FFF0FFF0FFF0FFF0F80
:10001000FF0FFF0FFF0FFF0FFF0FFF0FFF0FFF0F70
:020000040030CA
:0A0000008CFEFFFC9FFFFFFFFFFFD7
:00000001FF
